{
  "_format": "hh-sol-artifact-1",
  "contractName": "MonkeyGameToken",
  "sourceName": "contracts/MokeyGameToken.sol",
  "abi": [
    {
      "inputs": [
        {
          "internalType": "string",
          "name": "name",
          "type": "string"
        },
        {
          "internalType": "string",
          "name": "symbol",
          "type": "string"
        },
        {
          "internalType": "address",
          "name": "_devWallet",
          "type": "address"
        }
      ],
      "stateMutability": "nonpayable",
      "type": "constructor"
    },
    {
      "anonymous": false,
      "inputs": [
        {
          "indexed": true,
          "internalType": "address",
          "name": "owner",
          "type": "address"
        },
        {
          "indexed": true,
          "internalType": "address",
          "name": "spender",
          "type": "address"
        },
        {
          "indexed": false,
          "internalType": "uint256",
          "name": "value",
          "type": "uint256"
        }
      ],
      "name": "Approval",
      "type": "event"
    },
    {
      "anonymous": false,
      "inputs": [
        {
          "indexed": true,
          "internalType": "address",
          "name": "previousOwner",
          "type": "address"
        },
        {
          "indexed": true,
          "internalType": "address",
          "name": "newOwner",
          "type": "address"
        }
      ],
      "name": "OwnershipTransferred",
      "type": "event"
    },
    {
      "anonymous": false,
      "inputs": [
        {
          "indexed": true,
          "internalType": "address",
          "name": "from",
          "type": "address"
        },
        {
          "indexed": true,
          "internalType": "address",
          "name": "to",
          "type": "address"
        },
        {
          "indexed": false,
          "internalType": "uint256",
          "name": "value",
          "type": "uint256"
        }
      ],
      "name": "Transfer",
      "type": "event"
    },
    {
      "inputs": [],
      "name": "BURN_PERCENTAGE",
      "outputs": [
        {
          "internalType": "uint256",
          "name": "",
          "type": "uint256"
        }
      ],
      "stateMutability": "view",
      "type": "function"
    },
    {
      "inputs": [],
      "name": "DEV_FEE_PERCENTAGE",
      "outputs": [
        {
          "internalType": "uint256",
          "name": "",
          "type": "uint256"
        }
      ],
      "stateMutability": "view",
      "type": "function"
    },
    {
      "inputs": [],
      "name": "ENTRY_FEE",
      "outputs": [
        {
          "internalType": "uint256",
          "name": "",
          "type": "uint256"
        }
      ],
      "stateMutability": "view",
      "type": "function"
    },
    {
      "inputs": [],
      "name": "MAX_TRIES_PER_DAY",
      "outputs": [
        {
          "internalType": "uint256",
          "name": "",
          "type": "uint256"
        }
      ],
      "stateMutability": "view",
      "type": "function"
    },
    {
      "inputs": [],
      "name": "RESTART_FEE_PERCENTAGE",
      "outputs": [
        {
          "internalType": "uint256",
          "name": "",
          "type": "uint256"
        }
      ],
      "stateMutability": "view",
      "type": "function"
    },
    {
      "inputs": [],
      "name": "SECONDS_PER_DAY",
      "outputs": [
        {
          "internalType": "uint256",
          "name": "",
          "type": "uint256"
        }
      ],
      "stateMutability": "view",
      "type": "function"
    },
    {
      "inputs": [
        {
          "internalType": "address",
          "name": "owner",
          "type": "address"
        },
        {
          "internalType": "address",
          "name": "spender",
          "type": "address"
        }
      ],
      "name": "allowance",
      "outputs": [
        {
          "internalType": "uint256",
          "name": "",
          "type": "uint256"
        }
      ],
      "stateMutability": "view",
      "type": "function"
    },
    {
      "inputs": [
        {
          "internalType": "address",
          "name": "spender",
          "type": "address"
        },
        {
          "internalType": "uint256",
          "name": "amount",
          "type": "uint256"
        }
      ],
      "name": "approve",
      "outputs": [
        {
          "internalType": "bool",
          "name": "",
          "type": "bool"
        }
      ],
      "stateMutability": "nonpayable",
      "type": "function"
    },
    {
      "inputs": [
        {
          "internalType": "address",
          "name": "account",
          "type": "address"
        }
      ],
      "name": "balanceOf",
      "outputs": [
        {
          "internalType": "uint256",
          "name": "",
          "type": "uint256"
        }
      ],
      "stateMutability": "view",
      "type": "function"
    },
    {
      "inputs": [
        {
          "internalType": "address[]",
          "name": "recipients",
          "type": "address[]"
        },
        {
          "internalType": "uint256[]",
          "name": "amounts",
          "type": "uint256[]"
        }
      ],
      "name": "bulkAdd",
      "outputs": [],
      "stateMutability": "nonpayable",
      "type": "function"
    },
    {
      "inputs": [
        {
          "internalType": "address[]",
          "name": "recipients",
          "type": "address[]"
        },
        {
          "internalType": "uint256[]",
          "name": "amounts",
          "type": "uint256[]"
        }
      ],
      "name": "bulkRemove",
      "outputs": [],
      "stateMutability": "nonpayable",
      "type": "function"
    },
    {
      "inputs": [],
      "name": "decimals",
      "outputs": [
        {
          "internalType": "uint8",
          "name": "",
          "type": "uint8"
        }
      ],
      "stateMutability": "view",
      "type": "function"
    },
    {
      "inputs": [
        {
          "internalType": "address",
          "name": "spender",
          "type": "address"
        },
        {
          "internalType": "uint256",
          "name": "subtractedValue",
          "type": "uint256"
        }
      ],
      "name": "decreaseAllowance",
      "outputs": [
        {
          "internalType": "bool",
          "name": "",
          "type": "bool"
        }
      ],
      "stateMutability": "nonpayable",
      "type": "function"
    },
    {
      "inputs": [
        {
          "internalType": "address",
          "name": "spender",
          "type": "address"
        },
        {
          "internalType": "uint256",
          "name": "addedValue",
          "type": "uint256"
        }
      ],
      "name": "increaseAllowance",
      "outputs": [
        {
          "internalType": "bool",
          "name": "",
          "type": "bool"
        }
      ],
      "stateMutability": "nonpayable",
      "type": "function"
    },
    {
      "inputs": [
        {
          "internalType": "address",
          "name": "",
          "type": "address"
        }
      ],
      "name": "lastTry",
      "outputs": [
        {
          "internalType": "uint256",
          "name": "",
          "type": "uint256"
        }
      ],
      "stateMutability": "view",
      "type": "function"
    },
    {
      "inputs": [
        {
          "internalType": "address",
          "name": "to",
          "type": "address"
        },
        {
          "internalType": "uint256",
          "name": "_amount",
          "type": "uint256"
        }
      ],
      "name": "mint",
      "outputs": [],
      "stateMutability": "nonpayable",
      "type": "function"
    },
    {
      "inputs": [],
      "name": "name",
      "outputs": [
        {
          "internalType": "string",
          "name": "",
          "type": "string"
        }
      ],
      "stateMutability": "view",
      "type": "function"
    },
    {
      "inputs": [],
      "name": "owner",
      "outputs": [
        {
          "internalType": "address",
          "name": "",
          "type": "address"
        }
      ],
      "stateMutability": "view",
      "type": "function"
    },
    {
      "inputs": [
        {
          "internalType": "uint256",
          "name": "level",
          "type": "uint256"
        }
      ],
      "name": "play",
      "outputs": [],
      "stateMutability": "nonpayable",
      "type": "function"
    },
    {
      "inputs": [],
      "name": "renounceOwnership",
      "outputs": [],
      "stateMutability": "nonpayable",
      "type": "function"
    },
    {
      "inputs": [
        {
          "internalType": "uint256",
          "name": "level",
          "type": "uint256"
        }
      ],
      "name": "restart",
      "outputs": [],
      "stateMutability": "nonpayable",
      "type": "function"
    },
    {
      "inputs": [],
      "name": "symbol",
      "outputs": [
        {
          "internalType": "string",
          "name": "",
          "type": "string"
        }
      ],
      "stateMutability": "view",
      "type": "function"
    },
    {
      "inputs": [],
      "name": "totalSupply",
      "outputs": [
        {
          "internalType": "uint256",
          "name": "",
          "type": "uint256"
        }
      ],
      "stateMutability": "view",
      "type": "function"
    },
    {
      "inputs": [
        {
          "internalType": "address",
          "name": "to",
          "type": "address"
        },
        {
          "internalType": "uint256",
          "name": "amount",
          "type": "uint256"
        }
      ],
      "name": "transfer",
      "outputs": [
        {
          "internalType": "bool",
          "name": "",
          "type": "bool"
        }
      ],
      "stateMutability": "nonpayable",
      "type": "function"
    },
    {
      "inputs": [
        {
          "internalType": "address",
          "name": "from",
          "type": "address"
        },
        {
          "internalType": "address",
          "name": "to",
          "type": "address"
        },
        {
          "internalType": "uint256",
          "name": "amount",
          "type": "uint256"
        }
      ],
      "name": "transferFrom",
      "outputs": [
        {
          "internalType": "bool",
          "name": "",
          "type": "bool"
        }
      ],
      "stateMutability": "nonpayable",
      "type": "function"
    },
    {
      "inputs": [
        {
          "internalType": "address",
          "name": "newOwner",
          "type": "address"
        }
      ],
      "name": "transferOwnership",
      "outputs": [],
      "stateMutability": "nonpayable",
      "type": "function"
    },
    {
      "inputs": [
        {
          "internalType": "address",
          "name": "",
          "type": "address"
        }
      ],
      "name": "tryCount",
      "outputs": [
        {
          "internalType": "uint256",
          "name": "",
          "type": "uint256"
        }
      ],
      "stateMutability": "view",
      "type": "function"
    }
  ],
  "bytecode": "0x60806040523480156200001157600080fd5b50604051620030c8380380620030c883398181016040528101906200003791906200038f565b828281600390816200004a919062000674565b5080600490816200005c919062000674565b5050506200007f62000073620000c960201b60201c565b620000d160201b60201c565b80600660006101000a81548173ffffffffffffffffffffffffffffffffffffffff021916908373ffffffffffffffffffffffffffffffffffffffff1602179055505050506200075b565b600033905090565b6000600560009054906101000a900473ffffffffffffffffffffffffffffffffffffffff16905081600560006101000a81548173ffffffffffffffffffffffffffffffffffffffff021916908373ffffffffffffffffffffffffffffffffffffffff1602179055508173ffffffffffffffffffffffffffffffffffffffff168173ffffffffffffffffffffffffffffffffffffffff167f8be0079c531659141344cd1fd0a4f28419497f9722a3daafe3b4186f6b6457e060405160405180910390a35050565b6000604051905090565b600080fd5b600080fd5b600080fd5b600080fd5b6000601f19601f8301169050919050565b7f4e487b7100000000000000000000000000000000000000000000000000000000600052604160045260246000fd5b6200020082620001b5565b810181811067ffffffffffffffff82111715620002225762000221620001c6565b5b80604052505050565b60006200023762000197565b9050620002458282620001f5565b919050565b600067ffffffffffffffff821115620002685762000267620001c6565b5b6200027382620001b5565b9050602081019050919050565b60005b83811015620002a057808201518184015260208101905062000283565b60008484015250505050565b6000620002c3620002bd846200024a565b6200022b565b905082815260208101848484011115620002e257620002e1620001b0565b5b620002ef84828562000280565b509392505050565b600082601f8301126200030f576200030e620001ab565b5b815162000321848260208601620002ac565b91505092915050565b600073ffffffffffffffffffffffffffffffffffffffff82169050919050565b600062000357826200032a565b9050919050565b62000369816200034a565b81146200037557600080fd5b50565b60008151905062000389816200035e565b92915050565b600080600060608486031215620003ab57620003aa620001a1565b5b600084015167ffffffffffffffff811115620003cc57620003cb620001a6565b5b620003da86828701620002f7565b935050602084015167ffffffffffffffff811115620003fe57620003fd620001a6565b5b6200040c86828701620002f7565b92505060406200041f8682870162000378565b9150509250925092565b600081519050919050565b7f4e487b7100000000000000000000000000000000000000000000000000000000600052602260045260246000fd5b600060028204905060018216806200047c57607f821691505b60208210810362000492576200049162000434565b5b50919050565b60008190508160005260206000209050919050565b60006020601f8301049050919050565b600082821b905092915050565b600060088302620004fc7fffffffffffffffffffffffffffffffffffffffffffffffffffffffffffffffff82620004bd565b620005088683620004bd565b95508019841693508086168417925050509392505050565b6000819050919050565b6000819050919050565b6000620005556200054f620005498462000520565b6200052a565b62000520565b9050919050565b6000819050919050565b620005718362000534565b6200058962000580826200055c565b848454620004ca565b825550505050565b600090565b620005a062000591565b620005ad81848462000566565b505050565b5b81811015620005d557620005c960008262000596565b600181019050620005b3565b5050565b601f8211156200062457620005ee8162000498565b620005f984620004ad565b8101602085101562000609578190505b620006216200061885620004ad565b830182620005b2565b50505b505050565b600082821c905092915050565b6000620006496000198460080262000629565b1980831691505092915050565b600062000664838362000636565b9150826002028217905092915050565b6200067f8262000429565b67ffffffffffffffff8111156200069b576200069a620001c6565b5b620006a7825462000463565b620006b4828285620005d9565b600060209050601f831160018114620006ec5760008415620006d7578287015190505b620006e3858262000656565b86555062000753565b601f198416620006fc8662000498565b60005b828110156200072657848901518255600182019150602085019450602081019050620006ff565b8683101562000746578489015162000742601f89168262000636565b8355505b6001600288020188555050505b505050505050565b61295d806200076b6000396000f3fe608060405234801561001057600080fd5b50600436106101a95760003560e01c806374f0314f116100f9578063b0dbf47d11610097578063de86fc1a11610071578063de86fc1a146104d2578063f2fde38b146104f0578063f6d361cc1461050c578063fd15c6601461052a576101a9565b8063b0dbf47d14610468578063d049c60514610486578063dd62ed3e146104a2576101a9565b806395d89b41116100d357806395d89b41146103cc5780639649b910146103ea578063a457c2d714610408578063a9059cbb14610438576101a9565b806374f0314f146103605780637e1784391461037e5780638da5cb5b146103ae576101a9565b8063313ce567116101665780634d5e2835116101405780634d5e2835146102ee5780636898f82b1461030a57806370a0823114610326578063715018a614610356576101a9565b8063313ce5671461028457806339509351146102a257806340c10f19146102d2576101a9565b8063030eae2e146101ae57806306fdde03146101cc578063095ea7b3146101ea5780631801f38e1461021a57806318160ddd1461023657806323b872dd14610254575b600080fd5b6101b661055a565b6040516101c3919061184b565b60405180910390f35b6101d461055f565b6040516101e191906118f6565b60405180910390f35b61020460048036038101906101ff91906119b6565b6105f1565b6040516102119190611a11565b60405180910390f35b610234600480360381019061022f9190611a2c565b610614565b005b61023e610755565b60405161024b919061184b565b60405180910390f35b61026e60048036038101906102699190611a59565b61075f565b60405161027b9190611a11565b60405180910390f35b61028c61078e565b6040516102999190611ac8565b60405180910390f35b6102bc60048036038101906102b791906119b6565b610797565b6040516102c99190611a11565b60405180910390f35b6102ec60048036038101906102e791906119b6565b6107ce565b005b61030860048036038101906103039190611cee565b6107e4565b005b610324600480360381019061031f9190611a2c565b610892565b005b610340600480360381019061033b9190611d66565b610b31565b60405161034d919061184b565b60405180910390f35b61035e610b79565b005b610368610b8d565b604051610375919061184b565b60405180910390f35b61039860048036038101906103939190611d66565b610b94565b6040516103a5919061184b565b60405180910390f35b6103b6610bac565b6040516103c39190611da2565b60405180910390f35b6103d4610bd6565b6040516103e191906118f6565b60405180910390f35b6103f2610c68565b6040516103ff919061184b565b60405180910390f35b610422600480360381019061041d91906119b6565b610c6d565b60405161042f9190611a11565b60405180910390f35b610452600480360381019061044d91906119b6565b610ce4565b60405161045f9190611a11565b60405180910390f35b610470610d07565b60405161047d919061184b565b60405180910390f35b6104a0600480360381019061049b9190611cee565b610d0c565b005b6104bc60048036038101906104b79190611dbd565b610dba565b6040516104c9919061184b565b60405180910390f35b6104da610e41565b6040516104e7919061184b565b60405180910390f35b61050a60048036038101906105059190611d66565b610e46565b005b610514610ec9565b604051610521919061184b565b60405180910390f35b610544600480360381019061053f9190611d66565b610ed6565b604051610551919061184b565b60405180910390f35b600a81565b60606003805461056e90611e2c565b80601f016020809104026020016040519081016040528092919081815260200182805461059a90611e2c565b80156105e75780601f106105bc576101008083540402835291602001916105e7565b820191906000526020600020905b8154815290600101906020018083116105ca57829003601f168201915b5050505050905090565b6000806105fc610eee565b9050610609818585610ef6565b600191505092915050565b60646028670de0b6b3a76400008361062c9190611e8c565b6106369190611e8c565b6106409190611efd565b61064933610b31565b101561068a576040517f08c379a000000000000000000000000000000000000000000000000000000000815260040161068190611fa0565b60405180910390fd5b600060646028670de0b6b3a7640000846106a49190611e8c565b6106ae9190611e8c565b6106b89190611efd565b90506106de3360006064605a856106cf9190611e8c565b6106d99190611efd565b6110bf565b61072333600660009054906101000a900473ffffffffffffffffffffffffffffffffffffffff166064600a856107149190611e8c565b61071e9190611efd565b6110bf565b600081670de0b6b3a76400008461073a9190611e8c565b6107449190611fc0565b90506107503382611335565b505050565b6000600254905090565b60008061076a610eee565b905061077785828561148b565b6107828585856110bf565b60019150509392505050565b60006012905090565b6000806107a2610eee565b90506107c38185856107b48589610dba565b6107be9190611ff4565b610ef6565b600191505092915050565b6107d6611517565b6107e08282611335565b5050565b6107ec611517565b8051825114610830576040517f08c379a000000000000000000000000000000000000000000000000000000000815260040161082790612074565b60405180910390fd5b60005b825181101561088d5761087a83828151811061085257610851612094565b5b602002602001015183838151811061086d5761086c612094565b5b6020026020010151611595565b8080610885906120c3565b915050610833565b505050565b600a600860003373ffffffffffffffffffffffffffffffffffffffff1673ffffffffffffffffffffffffffffffffffffffff1681526020019081526020016000205410610914576040517f08c379a000000000000000000000000000000000000000000000000000000000815260040161090b9061217d565b60405180910390fd5b4262015180600760003373ffffffffffffffffffffffffffffffffffffffff1673ffffffffffffffffffffffffffffffffffffffff168152602001908152602001600020546109639190611ff4565b106109a3576040517f08c379a000000000000000000000000000000000000000000000000000000000815260040161099a9061220f565b60405180910390fd5b68015af1d78b58c400006109b633610b31565b10156109f7576040517f08c379a00000000000000000000000000000000000000000000000000000000081526004016109ee906122a1565b60405180910390fd5b42600760003373ffffffffffffffffffffffffffffffffffffffff1673ffffffffffffffffffffffffffffffffffffffff16815260200190815260200160002081905550600860003373ffffffffffffffffffffffffffffffffffffffff1673ffffffffffffffffffffffffffffffffffffffff1681526020019081526020016000206000815480929190610a8b906120c3565b9190505550610abd3360006064605a68015af1d78b58c40000610aae9190611e8c565b610ab89190611efd565b6110bf565b610b0b33600660009054906101000a900473ffffffffffffffffffffffffffffffffffffffff166064600a68015af1d78b58c40000610afc9190611e8c565b610b069190611efd565b6110bf565b6000670de0b6b3a764000082610b219190611e8c565b9050610b2d3382611335565b5050565b60008060008373ffffffffffffffffffffffffffffffffffffffff1673ffffffffffffffffffffffffffffffffffffffff168152602001908152602001600020549050919050565b610b81611517565b610b8b6000611762565b565b6201518081565b60086020528060005260406000206000915090505481565b6000600560009054906101000a900473ffffffffffffffffffffffffffffffffffffffff16905090565b606060048054610be590611e2c565b80601f0160208091040260200160405190810160405280929190818152602001828054610c1190611e2c565b8015610c5e5780601f10610c3357610100808354040283529160200191610c5e565b820191906000526020600020905b815481529060010190602001808311610c4157829003601f168201915b5050505050905090565b605a81565b600080610c78610eee565b90506000610c868286610dba565b905083811015610ccb576040517f08c379a0000000000000000000000000000000000000000000000000000000008152600401610cc290612333565b60405180910390fd5b610cd88286868403610ef6565b60019250505092915050565b600080610cef610eee565b9050610cfc8185856110bf565b600191505092915050565b600a81565b610d14611517565b8051825114610d58576040517f08c379a0000000000000000000000000000000000000000000000000000000008152600401610d4f90612074565b60405180910390fd5b60005b8251811015610db557610da2838281518110610d7a57610d79612094565b5b6020026020010151838381518110610d9557610d94612094565b5b6020026020010151611335565b8080610dad906120c3565b915050610d5b565b505050565b6000600160008473ffffffffffffffffffffffffffffffffffffffff1673ffffffffffffffffffffffffffffffffffffffff16815260200190815260200160002060008373ffffffffffffffffffffffffffffffffffffffff1673ffffffffffffffffffffffffffffffffffffffff16815260200190815260200160002054905092915050565b602881565b610e4e611517565b600073ffffffffffffffffffffffffffffffffffffffff168173ffffffffffffffffffffffffffffffffffffffff1603610ebd576040517f08c379a0000000000000000000000000000000000000000000000000000000008152600401610eb4906123c5565b60405180910390fd5b610ec681611762565b50565b68015af1d78b58c4000081565b60076020528060005260406000206000915090505481565b600033905090565b600073ffffffffffffffffffffffffffffffffffffffff168373ffffffffffffffffffffffffffffffffffffffff1603610f65576040517f08c379a0000000000000000000000000000000000000000000000000000000008152600401610f5c90612457565b60405180910390fd5b600073ffffffffffffffffffffffffffffffffffffffff168273ffffffffffffffffffffffffffffffffffffffff1603610fd4576040517f08c379a0000000000000000000000000000000000000000000000000000000008152600401610fcb906124e9565b60405180910390fd5b80600160008573ffffffffffffffffffffffffffffffffffffffff1673ffffffffffffffffffffffffffffffffffffffff16815260200190815260200160002060008473ffffffffffffffffffffffffffffffffffffffff1673ffffffffffffffffffffffffffffffffffffffff168152602001908152602001600020819055508173ffffffffffffffffffffffffffffffffffffffff168373ffffffffffffffffffffffffffffffffffffffff167f8c5be1e5ebec7d5bd14f71427d1e84f3dd0314c0f7b2291e5b200ac8c7c3b925836040516110b2919061184b565b60405180910390a3505050565b600073ffffffffffffffffffffffffffffffffffffffff168373ffffffffffffffffffffffffffffffffffffffff160361112e576040517f08c379a00000000000000000000000000000000000000000000000000000000081526004016111259061257b565b60405180910390fd5b600073ffffffffffffffffffffffffffffffffffffffff168273ffffffffffffffffffffffffffffffffffffffff160361119d576040517f08c379a00000000000000000000000000000000000000000000000000000000081526004016111949061260d565b60405180910390fd5b6111a8838383611828565b60008060008573ffffffffffffffffffffffffffffffffffffffff1673ffffffffffffffffffffffffffffffffffffffff1681526020019081526020016000205490508181101561122e576040517f08c379a00000000000000000000000000000000000000000000000000000000081526004016112259061269f565b60405180910390fd5b8181036000808673ffffffffffffffffffffffffffffffffffffffff1673ffffffffffffffffffffffffffffffffffffffff16815260200190815260200160002081905550816000808573ffffffffffffffffffffffffffffffffffffffff1673ffffffffffffffffffffffffffffffffffffffff168152602001908152602001600020600082825401925050819055508273ffffffffffffffffffffffffffffffffffffffff168473ffffffffffffffffffffffffffffffffffffffff167fddf252ad1be2c89b69c2b068fc378daa952ba7f163c4a11628f55a4df523b3ef8460405161131c919061184b565b60405180910390a361132f84848461182d565b50505050565b600073ffffffffffffffffffffffffffffffffffffffff168273ffffffffffffffffffffffffffffffffffffffff16036113a4576040517f08c379a000000000000000000000000000000000000000000000000000000000815260040161139b9061270b565b60405180910390fd5b6113b060008383611828565b80600260008282546113c29190611ff4565b92505081905550806000808473ffffffffffffffffffffffffffffffffffffffff1673ffffffffffffffffffffffffffffffffffffffff168152602001908152602001600020600082825401925050819055508173ffffffffffffffffffffffffffffffffffffffff16600073ffffffffffffffffffffffffffffffffffffffff167fddf252ad1be2c89b69c2b068fc378daa952ba7f163c4a11628f55a4df523b3ef83604051611473919061184b565b60405180910390a36114876000838361182d565b5050565b60006114978484610dba565b90507fffffffffffffffffffffffffffffffffffffffffffffffffffffffffffffffff81146115115781811015611503576040517f08c379a00000000000000000000000000000000000000000000000000000000081526004016114fa90612777565b60405180910390fd5b6115108484848403610ef6565b5b50505050565b61151f610eee565b73ffffffffffffffffffffffffffffffffffffffff1661153d610bac565b73ffffffffffffffffffffffffffffffffffffffff1614611593576040517f08c379a000000000000000000000000000000000000000000000000000000000815260040161158a906127e3565b60405180910390fd5b565b600073ffffffffffffffffffffffffffffffffffffffff168273ffffffffffffffffffffffffffffffffffffffff1603611604576040517f08c379a00000000000000000000000000000000000000000000000000000000081526004016115fb90612875565b60405180910390fd5b61161082600083611828565b60008060008473ffffffffffffffffffffffffffffffffffffffff1673ffffffffffffffffffffffffffffffffffffffff16815260200190815260200160002054905081811015611696576040517f08c379a000000000000000000000000000000000000000000000000000000000815260040161168d90612907565b60405180910390fd5b8181036000808573ffffffffffffffffffffffffffffffffffffffff1673ffffffffffffffffffffffffffffffffffffffff1681526020019081526020016000208190555081600260008282540392505081905550600073ffffffffffffffffffffffffffffffffffffffff168373ffffffffffffffffffffffffffffffffffffffff167fddf252ad1be2c89b69c2b068fc378daa952ba7f163c4a11628f55a4df523b3ef84604051611749919061184b565b60405180910390a361175d8360008461182d565b505050565b6000600560009054906101000a900473ffffffffffffffffffffffffffffffffffffffff16905081600560006101000a81548173ffffffffffffffffffffffffffffffffffffffff021916908373ffffffffffffffffffffffffffffffffffffffff1602179055508173ffffffffffffffffffffffffffffffffffffffff168173ffffffffffffffffffffffffffffffffffffffff167f8be0079c531659141344cd1fd0a4f28419497f9722a3daafe3b4186f6b6457e060405160405180910390a35050565b505050565b505050565b6000819050919050565b61184581611832565b82525050565b6000602082019050611860600083018461183c565b92915050565b600081519050919050565b600082825260208201905092915050565b60005b838110156118a0578082015181840152602081019050611885565b60008484015250505050565b6000601f19601f8301169050919050565b60006118c882611866565b6118d28185611871565b93506118e2818560208601611882565b6118eb816118ac565b840191505092915050565b6000602082019050818103600083015261191081846118bd565b905092915050565b6000604051905090565b600080fd5b600080fd5b600073ffffffffffffffffffffffffffffffffffffffff82169050919050565b60006119578261192c565b9050919050565b6119678161194c565b811461197257600080fd5b50565b6000813590506119848161195e565b92915050565b61199381611832565b811461199e57600080fd5b50565b6000813590506119b08161198a565b92915050565b600080604083850312156119cd576119cc611922565b5b60006119db85828601611975565b92505060206119ec858286016119a1565b9150509250929050565b60008115159050919050565b611a0b816119f6565b82525050565b6000602082019050611a266000830184611a02565b92915050565b600060208284031215611a4257611a41611922565b5b6000611a50848285016119a1565b91505092915050565b600080600060608486031215611a7257611a71611922565b5b6000611a8086828701611975565b9350506020611a9186828701611975565b9250506040611aa2868287016119a1565b9150509250925092565b600060ff82169050919050565b611ac281611aac565b82525050565b6000602082019050611add6000830184611ab9565b92915050565b600080fd5b7f4e487b7100000000000000000000000000000000000000000000000000000000600052604160045260246000fd5b611b20826118ac565b810181811067ffffffffffffffff82111715611b3f57611b3e611ae8565b5b80604052505050565b6000611b52611918565b9050611b5e8282611b17565b919050565b600067ffffffffffffffff821115611b7e57611b7d611ae8565b5b602082029050602081019050919050565b600080fd5b6000611ba7611ba284611b63565b611b48565b90508083825260208201905060208402830185811115611bca57611bc9611b8f565b5b835b81811015611bf35780611bdf8882611975565b845260208401935050602081019050611bcc565b5050509392505050565b600082601f830112611c1257611c11611ae3565b5b8135611c22848260208601611b94565b91505092915050565b600067ffffffffffffffff821115611c4657611c45611ae8565b5b602082029050602081019050919050565b6000611c6a611c6584611c2b565b611b48565b90508083825260208201905060208402830185811115611c8d57611c8c611b8f565b5b835b81811015611cb65780611ca288826119a1565b845260208401935050602081019050611c8f565b5050509392505050565b600082601f830112611cd557611cd4611ae3565b5b8135611ce5848260208601611c57565b91505092915050565b60008060408385031215611d0557611d04611922565b5b600083013567ffffffffffffffff811115611d2357611d22611927565b5b611d2f85828601611bfd565b925050602083013567ffffffffffffffff811115611d5057611d4f611927565b5b611d5c85828601611cc0565b9150509250929050565b600060208284031215611d7c57611d7b611922565b5b6000611d8a84828501611975565b91505092915050565b611d9c8161194c565b82525050565b6000602082019050611db76000830184611d93565b92915050565b60008060408385031215611dd457611dd3611922565b5b6000611de285828601611975565b9250506020611df385828601611975565b9150509250929050565b7f4e487b7100000000000000000000000000000000000000000000000000000000600052602260045260246000fd5b60006002820490506001821680611e4457607f821691505b602082108103611e5757611e56611dfd565b5b50919050565b7f4e487b7100000000000000000000000000000000000000000000000000000000600052601160045260246000fd5b6000611e9782611832565b9150611ea283611832565b9250828202611eb081611832565b91508282048414831517611ec757611ec6611e5d565b5b5092915050565b7f4e487b7100000000000000000000000000000000000000000000000000000000600052601260045260246000fd5b6000611f0882611832565b9150611f1383611832565b925082611f2357611f22611ece565b5b828204905092915050565b7f596f7520646f206e6f74206861766520656e6f75676820746f6b656e7320746f60008201527f2072657374617274000000000000000000000000000000000000000000000000602082015250565b6000611f8a602883611871565b9150611f9582611f2e565b604082019050919050565b60006020820190508181036000830152611fb981611f7d565b9050919050565b6000611fcb82611832565b9150611fd683611832565b9250828203905081811115611fee57611fed611e5d565b5b92915050565b6000611fff82611832565b915061200a83611832565b925082820190508082111561202257612021611e5d565b5b92915050565b7f417272617973206d7573742068617665207468652073616d65206c656e677468600082015250565b600061205e602083611871565b915061206982612028565b602082019050919050565b6000602082019050818103600083015261208d81612051565b9050919050565b7f4e487b7100000000000000000000000000000000000000000000000000000000600052603260045260246000fd5b60006120ce82611832565b91507fffffffffffffffffffffffffffffffffffffffffffffffffffffffffffffffff8203612100576120ff611e5d565b5b600182019050919050565b7f596f752068617665207265616368656420796f7572206461696c79206c696d6960008201527f7400000000000000000000000000000000000000000000000000000000000000602082015250565b6000612167602183611871565b91506121728261210b565b604082019050919050565b600060208201905081810360008301526121968161215a565b9050919050565b7f506c65617365207761697420323420686f757273206265666f7265207472796960008201527f6e6720616761696e000000000000000000000000000000000000000000000000602082015250565b60006121f9602883611871565b91506122048261219d565b604082019050919050565b60006020820190508181036000830152612228816121ec565b9050919050565b7f596f7520646f206e6f74206861766520656e6f75676820746f6b656e7320746f60008201527f20706c6179000000000000000000000000000000000000000000000000000000602082015250565b600061228b602583611871565b91506122968261222f565b604082019050919050565b600060208201905081810360008301526122ba8161227e565b9050919050565b7f45524332303a2064656372656173656420616c6c6f77616e63652062656c6f7760008201527f207a65726f000000000000000000000000000000000000000000000000000000602082015250565b600061231d602583611871565b9150612328826122c1565b604082019050919050565b6000602082019050818103600083015261234c81612310565b9050919050565b7f4f776e61626c653a206e6577206f776e657220697320746865207a65726f206160008201527f6464726573730000000000000000000000000000000000000000000000000000602082015250565b60006123af602683611871565b91506123ba82612353565b604082019050919050565b600060208201905081810360008301526123de816123a2565b9050919050565b7f45524332303a20617070726f76652066726f6d20746865207a65726f2061646460008201527f7265737300000000000000000000000000000000000000000000000000000000602082015250565b6000612441602483611871565b915061244c826123e5565b604082019050919050565b6000602082019050818103600083015261247081612434565b9050919050565b7f45524332303a20617070726f766520746f20746865207a65726f20616464726560008201527f7373000000000000000000000000000000000000000000000000000000000000602082015250565b60006124d3602283611871565b91506124de82612477565b604082019050919050565b60006020820190508181036000830152612502816124c6565b9050919050565b7f45524332303a207472616e736665722066726f6d20746865207a65726f20616460008201527f6472657373000000000000000000000000000000000000000000000000000000602082015250565b6000612565602583611871565b915061257082612509565b604082019050919050565b6000602082019050818103600083015261259481612558565b9050919050565b7f45524332303a207472616e7366657220746f20746865207a65726f206164647260008201527f6573730000000000000000000000000000000000000000000000000000000000602082015250565b60006125f7602383611871565b91506126028261259b565b604082019050919050565b60006020820190508181036000830152612626816125ea565b9050919050565b7f45524332303a207472616e7366657220616d6f756e742065786365656473206260008201527f616c616e63650000000000000000000000000000000000000000000000000000602082015250565b6000612689602683611871565b91506126948261262d565b604082019050919050565b600060208201905081810360008301526126b88161267c565b9050919050565b7f45524332303a206d696e7420746f20746865207a65726f206164647265737300600082015250565b60006126f5601f83611871565b9150612700826126bf565b602082019050919050565b60006020820190508181036000830152612724816126e8565b9050919050565b7f45524332303a20696e73756666696369656e7420616c6c6f77616e6365000000600082015250565b6000612761601d83611871565b915061276c8261272b565b602082019050919050565b6000602082019050818103600083015261279081612754565b9050919050565b7f4f776e61626c653a2063616c6c6572206973206e6f7420746865206f776e6572600082015250565b60006127cd602083611871565b91506127d882612797565b602082019050919050565b600060208201905081810360008301526127fc816127c0565b9050919050565b7f45524332303a206275726e2066726f6d20746865207a65726f2061646472657360008201527f7300000000000000000000000000000000000000000000000000000000000000602082015250565b600061285f602183611871565b915061286a82612803565b604082019050919050565b6000602082019050818103600083015261288e81612852565b9050919050565b7f45524332303a206275726e20616d6f756e7420657863656564732062616c616e60008201527f6365000000000000000000000000000000000000000000000000000000000000602082015250565b60006128f1602283611871565b91506128fc82612895565b604082019050919050565b60006020820190508181036000830152612920816128e4565b905091905056fea2646970667358221220cea89430ab3119470ec90fa86c4aeab98323bc53502695d3ee5c24cda5663bf264736f6c63430008130033",
  "linkReferences": {},
  "deployedLinkReferences": {}
}